{
    "contractName": "ERC721PresetMinterPauserAutoId",
    "abi": [
        {
            "inputs": [
                {
                    "internalType": "string",
                    "name": "name",
                    "type": "string"
                },
                {
                    "internalType": "string",
                    "name": "symbol",
                    "type": "string"
                },
                {
                    "internalType": "string",
                    "name": "baseTokenURI",
                    "type": "string"
                }
            ],
            "stateMutability": "nonpayable",
            "type": "constructor"
        },
        {
            "anonymous": false,
            "inputs": [
                {
                    "indexed": true,
                    "internalType": "address",
                    "name": "owner",
                    "type": "address"
                },
                {
                    "indexed": true,
                    "internalType": "address",
                    "name": "approved",
                    "type": "address"
                },
                {
                    "indexed": true,
                    "internalType": "uint256",
                    "name": "tokenId",
                    "type": "uint256"
                }
            ],
            "name": "Approval",
            "type": "event"
        },
        {
            "anonymous": false,
            "inputs": [
                {
                    "indexed": true,
                    "internalType": "address",
                    "name": "owner",
                    "type": "address"
                },
                {
                    "indexed": true,
                    "internalType": "address",
                    "name": "operator",
                    "type": "address"
                },
                {
                    "indexed": false,
                    "internalType": "bool",
                    "name": "approved",
                    "type": "bool"
                }
            ],
            "name": "ApprovalForAll",
            "type": "event"
        },
        {
            "anonymous": false,
            "inputs": [
                {
                    "indexed": false,
                    "internalType": "address",
                    "name": "account",
                    "type": "address"
                }
            ],
            "name": "Paused",
            "type": "event"
        },
        {
            "anonymous": false,
            "inputs": [
                {
                    "indexed": true,
                    "internalType": "bytes32",
                    "name": "role",
                    "type": "bytes32"
                },
                {
                    "indexed": true,
                    "internalType": "bytes32",
                    "name": "previousAdminRole",
                    "type": "bytes32"
                },
                {
                    "indexed": true,
                    "internalType": "bytes32",
                    "name": "newAdminRole",
                    "type": "bytes32"
                }
            ],
            "name": "RoleAdminChanged",
            "type": "event"
        },
        {
            "anonymous": false,
            "inputs": [
                {
                    "indexed": true,
                    "internalType": "bytes32",
                    "name": "role",
                    "type": "bytes32"
                },
                {
                    "indexed": true,
                    "internalType": "address",
                    "name": "account",
                    "type": "address"
                },
                {
                    "indexed": true,
                    "internalType": "address",
                    "name": "sender",
                    "type": "address"
                }
            ],
            "name": "RoleGranted",
            "type": "event"
        },
        {
            "anonymous": false,
            "inputs": [
                {
                    "indexed": true,
                    "internalType": "bytes32",
                    "name": "role",
                    "type": "bytes32"
                },
                {
                    "indexed": true,
                    "internalType": "address",
                    "name": "account",
                    "type": "address"
                },
                {
                    "indexed": true,
                    "internalType": "address",
                    "name": "sender",
                    "type": "address"
                }
            ],
            "name": "RoleRevoked",
            "type": "event"
        },
        {
            "anonymous": false,
            "inputs": [
                {
                    "indexed": true,
                    "internalType": "address",
                    "name": "from",
                    "type": "address"
                },
                {
                    "indexed": true,
                    "internalType": "address",
                    "name": "to",
                    "type": "address"
                },
                {
                    "indexed": true,
                    "internalType": "uint256",
                    "name": "tokenId",
                    "type": "uint256"
                }
            ],
            "name": "Transfer",
            "type": "event"
        },
        {
            "anonymous": false,
            "inputs": [
                {
                    "indexed": false,
                    "internalType": "address",
                    "name": "account",
                    "type": "address"
                }
            ],
            "name": "Unpaused",
            "type": "event"
        },
        {
            "inputs": [],
            "name": "DEFAULT_ADMIN_ROLE",
            "outputs": [
                {
                    "internalType": "bytes32",
                    "name": "",
                    "type": "bytes32"
                }
            ],
            "stateMutability": "view",
            "type": "function"
        },
        {
            "inputs": [],
            "name": "MINTER_ROLE",
            "outputs": [
                {
                    "internalType": "bytes32",
                    "name": "",
                    "type": "bytes32"
                }
            ],
            "stateMutability": "view",
            "type": "function"
        },
        {
            "inputs": [],
            "name": "PAUSER_ROLE",
            "outputs": [
                {
                    "internalType": "bytes32",
                    "name": "",
                    "type": "bytes32"
                }
            ],
            "stateMutability": "view",
            "type": "function"
        },
        {
            "inputs": [
                {
                    "internalType": "uint256",
                    "name": "tokenId",
                    "type": "uint256"
                }
            ],
            "name": "admBurn",
            "outputs": [],
            "stateMutability": "nonpayable",
            "type": "function"
        },
        {
            "inputs": [
                {
                    "internalType": "address",
                    "name": "player",
                    "type": "address"
                },
                {
                    "internalType": "string",
                    "name": "_tokenURI",
                    "type": "string"
                }
            ],
            "name": "admMint",
            "outputs": [
                {
                    "internalType": "uint256",
                    "name": "",
                    "type": "uint256"
                }
            ],
            "stateMutability": "nonpayable",
            "type": "function"
        },
        {
            "inputs": [],
            "name": "admPause",
            "outputs": [],
            "stateMutability": "nonpayable",
            "type": "function"
        },
        {
            "inputs": [
                {
                    "internalType": "address",
                    "name": "from",
                    "type": "address"
                },
                {
                    "internalType": "address",
                    "name": "to",
                    "type": "address"
                },
                {
                    "internalType": "uint256",
                    "name": "tokenId",
                    "type": "uint256"
                },
                {
                    "internalType": "bytes",
                    "name": "_data",
                    "type": "bytes"
                }
            ],
            "name": "admSafeTransferFrom",
            "outputs": [],
            "stateMutability": "nonpayable",
            "type": "function"
        },
        {
            "inputs": [
                {
                    "internalType": "uint256",
                    "name": "tokenId",
                    "type": "uint256"
                },
                {
                    "internalType": "bool",
                    "name": "_tokenIsTransferable",
                    "type": "bool"
                }
            ],
            "name": "admSetTokenIsTransferable",
            "outputs": [],
            "stateMutability": "nonpayable",
            "type": "function"
        },
        {
            "inputs": [
                {
                    "internalType": "uint256",
                    "name": "tokenId",
                    "type": "uint256"
                }
            ],
            "name": "admTokenURI",
            "outputs": [
                {
                    "internalType": "string",
                    "name": "",
                    "type": "string"
                }
            ],
            "stateMutability": "view",
            "type": "function"
        },
        {
            "inputs": [
                {
                    "internalType": "address",
                    "name": "from",
                    "type": "address"
                },
                {
                    "internalType": "address",
                    "name": "to",
                    "type": "address"
                },
                {
                    "internalType": "uint256",
                    "name": "tokenId",
                    "type": "uint256"
                }
            ],
            "name": "admTransferFrom",
            "outputs": [],
            "stateMutability": "nonpayable",
            "type": "function"
        },
        {
            "inputs": [],
            "name": "admUnpause",
            "outputs": [],
            "stateMutability": "nonpayable",
            "type": "function"
        },
        {
            "inputs": [
                {
                    "internalType": "address",
                    "name": "to",
                    "type": "address"
                },
                {
                    "internalType": "uint256",
                    "name": "tokenId",
                    "type": "uint256"
                }
            ],
            "name": "approve",
            "outputs": [],
            "stateMutability": "nonpayable",
            "type": "function"
        },
        {
            "inputs": [
                {
                    "internalType": "address",
                    "name": "owner",
                    "type": "address"
                }
            ],
            "name": "balanceOf",
            "outputs": [
                {
                    "internalType": "uint256",
                    "name": "",
                    "type": "uint256"
                }
            ],
            "stateMutability": "view",
            "type": "function"
        },
        {
            "inputs": [
                {
                    "internalType": "uint256",
                    "name": "tokenId",
                    "type": "uint256"
                }
            ],
            "name": "getApproved",
            "outputs": [
                {
                    "internalType": "address",
                    "name": "",
                    "type": "address"
                }
            ],
            "stateMutability": "view",
            "type": "function"
        },
        {
            "inputs": [
                {
                    "internalType": "bytes32",
                    "name": "role",
                    "type": "bytes32"
                }
            ],
            "name": "getRoleAdmin",
            "outputs": [
                {
                    "internalType": "bytes32",
                    "name": "",
                    "type": "bytes32"
                }
            ],
            "stateMutability": "view",
            "type": "function"
        },
        {
            "inputs": [
                {
                    "internalType": "bytes32",
                    "name": "role",
                    "type": "bytes32"
                },
                {
                    "internalType": "uint256",
                    "name": "index",
                    "type": "uint256"
                }
            ],
            "name": "getRoleMember",
            "outputs": [
                {
                    "internalType": "address",
                    "name": "",
                    "type": "address"
                }
            ],
            "stateMutability": "view",
            "type": "function"
        },
        {
            "inputs": [
                {
                    "internalType": "bytes32",
                    "name": "role",
                    "type": "bytes32"
                }
            ],
            "name": "getRoleMemberCount",
            "outputs": [
                {
                    "internalType": "uint256",
                    "name": "",
                    "type": "uint256"
                }
            ],
            "stateMutability": "view",
            "type": "function"
        },
        {
            "inputs": [
                {
                    "internalType": "bytes32",
                    "name": "role",
                    "type": "bytes32"
                },
                {
                    "internalType": "address",
                    "name": "account",
                    "type": "address"
                }
            ],
            "name": "grantRole",
            "outputs": [],
            "stateMutability": "nonpayable",
            "type": "function"
        },
        {
            "inputs": [
                {
                    "internalType": "bytes32",
                    "name": "role",
                    "type": "bytes32"
                },
                {
                    "internalType": "address",
                    "name": "account",
                    "type": "address"
                }
            ],
            "name": "hasRole",
            "outputs": [
                {
                    "internalType": "bool",
                    "name": "",
                    "type": "bool"
                }
            ],
            "stateMutability": "view",
            "type": "function"
        },
        {
            "inputs": [
                {
                    "internalType": "address",
                    "name": "owner",
                    "type": "address"
                },
                {
                    "internalType": "address",
                    "name": "operator",
                    "type": "address"
                }
            ],
            "name": "isApprovedForAll",
            "outputs": [
                {
                    "internalType": "bool",
                    "name": "",
                    "type": "bool"
                }
            ],
            "stateMutability": "view",
            "type": "function"
        },
        {
            "inputs": [],
            "name": "name",
            "outputs": [
                {
                    "internalType": "string",
                    "name": "",
                    "type": "string"
                }
            ],
            "stateMutability": "view",
            "type": "function"
        },
        {
            "inputs": [
                {
                    "internalType": "uint256",
                    "name": "tokenId",
                    "type": "uint256"
                }
            ],
            "name": "ownerOf",
            "outputs": [
                {
                    "internalType": "address",
                    "name": "",
                    "type": "address"
                }
            ],
            "stateMutability": "view",
            "type": "function"
        },
        {
            "inputs": [],
            "name": "paused",
            "outputs": [
                {
                    "internalType": "bool",
                    "name": "",
                    "type": "bool"
                }
            ],
            "stateMutability": "view",
            "type": "function"
        },
        {
            "inputs": [
                {
                    "internalType": "bytes32",
                    "name": "role",
                    "type": "bytes32"
                },
                {
                    "internalType": "address",
                    "name": "account",
                    "type": "address"
                }
            ],
            "name": "renounceRole",
            "outputs": [],
            "stateMutability": "nonpayable",
            "type": "function"
        },
        {
            "inputs": [
                {
                    "internalType": "bytes32",
                    "name": "role",
                    "type": "bytes32"
                },
                {
                    "internalType": "address",
                    "name": "account",
                    "type": "address"
                }
            ],
            "name": "revokeRole",
            "outputs": [],
            "stateMutability": "nonpayable",
            "type": "function"
        },
        {
            "inputs": [
                {
                    "internalType": "address",
                    "name": "from",
                    "type": "address"
                },
                {
                    "internalType": "address",
                    "name": "to",
                    "type": "address"
                },
                {
                    "internalType": "uint256",
                    "name": "tokenId",
                    "type": "uint256"
                }
            ],
            "name": "safeTransferFrom",
            "outputs": [],
            "stateMutability": "nonpayable",
            "type": "function"
        },
        {
            "inputs": [
                {
                    "internalType": "address",
                    "name": "from",
                    "type": "address"
                },
                {
                    "internalType": "address",
                    "name": "to",
                    "type": "address"
                },
                {
                    "internalType": "uint256",
                    "name": "tokenId",
                    "type": "uint256"
                },
                {
                    "internalType": "bytes",
                    "name": "_data",
                    "type": "bytes"
                }
            ],
            "name": "safeTransferFrom",
            "outputs": [],
            "stateMutability": "nonpayable",
            "type": "function"
        },
        {
            "inputs": [
                {
                    "internalType": "address",
                    "name": "operator",
                    "type": "address"
                },
                {
                    "internalType": "bool",
                    "name": "approved",
                    "type": "bool"
                }
            ],
            "name": "setApprovalForAll",
            "outputs": [],
            "stateMutability": "nonpayable",
            "type": "function"
        },
        {
            "inputs": [
                {
                    "internalType": "bytes4",
                    "name": "interfaceId",
                    "type": "bytes4"
                }
            ],
            "name": "supportsInterface",
            "outputs": [
                {
                    "internalType": "bool",
                    "name": "",
                    "type": "bool"
                }
            ],
            "stateMutability": "view",
            "type": "function"
        },
        {
            "inputs": [],
            "name": "symbol",
            "outputs": [
                {
                    "internalType": "string",
                    "name": "",
                    "type": "string"
                }
            ],
            "stateMutability": "view",
            "type": "function"
        },
        {
            "inputs": [
                {
                    "internalType": "uint256",
                    "name": "index",
                    "type": "uint256"
                }
            ],
            "name": "tokenByIndex",
            "outputs": [
                {
                    "internalType": "uint256",
                    "name": "",
                    "type": "uint256"
                }
            ],
            "stateMutability": "view",
            "type": "function"
        },
        {
            "inputs": [
                {
                    "internalType": "uint256",
                    "name": "tokenId",
                    "type": "uint256"
                }
            ],
            "name": "tokenIsTransferable",
            "outputs": [
                {
                    "internalType": "bool",
                    "name": "",
                    "type": "bool"
                }
            ],
            "stateMutability": "view",
            "type": "function"
        },
        {
            "inputs": [
                {
                    "internalType": "address",
                    "name": "owner",
                    "type": "address"
                },
                {
                    "internalType": "uint256",
                    "name": "index",
                    "type": "uint256"
                }
            ],
            "name": "tokenOfOwnerByIndex",
            "outputs": [
                {
                    "internalType": "uint256",
                    "name": "",
                    "type": "uint256"
                }
            ],
            "stateMutability": "view",
            "type": "function"
        },
        {
            "inputs": [
                {
                    "internalType": "uint256",
                    "name": "tokenId",
                    "type": "uint256"
                }
            ],
            "name": "tokenURI",
            "outputs": [
                {
                    "internalType": "string",
                    "name": "",
                    "type": "string"
                }
            ],
            "stateMutability": "view",
            "type": "function"
        },
        {
            "inputs": [],
            "name": "totalSupply",
            "outputs": [
                {
                    "internalType": "uint256",
                    "name": "",
                    "type": "uint256"
                }
            ],
            "stateMutability": "view",
            "type": "function"
        },
        {
            "inputs": [
                {
                    "internalType": "address",
                    "name": "from",
                    "type": "address"
                },
                {
                    "internalType": "address",
                    "name": "to",
                    "type": "address"
                },
                {
                    "internalType": "uint256",
                    "name": "tokenId",
                    "type": "uint256"
                }
            ],
            "name": "transferFrom",
            "outputs": [],
            "stateMutability": "nonpayable",
            "type": "function"
        }
    ],
    "bytecode": "60806040523480156200001157600080fd5b5060405162002f4838038062002f4883398101604081905262000034916200038f565b8251839083906200004d90600290602085019062000236565b5080516200006390600390602084019062000236565b5050600c805460ff191690555080516200008590601090602084019062000236565b506200009c600062000096620000a5565b620000a9565b5050506200046f565b3390565b620000c08282620000ec60201b62000e0c1760201c565b6000828152600160209081526040909120620000e791839062000e16620000fc821b17901c565b505050565b620000f882826200011c565b5050565b600062000113836001600160a01b038416620001a6565b90505b92915050565b620001288282620001f5565b620000f8576000828152602081815260408083206001600160a01b03851684529091529020805460ff1916600117905562000162620000a5565b6001600160a01b0316816001600160a01b0316837f2f8788117e7eff1d82e926ec794901d17c78024a50270940304540a733656f0d60405160405180910390a45050565b6000620001b483836200021e565b620001ec5750815460018181018455600084815260208082209093018490558454848252828601909352604090209190915562000116565b50600062000116565b6000918252602082815260408084206001600160a01b0393909316845291905290205460ff1690565b60009081526001919091016020526040902054151590565b82805462000244906200041c565b90600052602060002090601f016020900481019282620002685760008555620002b3565b82601f106200028357805160ff1916838001178555620002b3565b82800160010185558215620002b3579182015b82811115620002b357825182559160200191906001019062000296565b50620002c1929150620002c5565b5090565b5b80821115620002c15760008155600101620002c6565b600082601f830112620002ed578081fd5b81516001600160401b03808211156200030a576200030a62000459565b604051601f8301601f19908116603f0116810190828211818310171562000335576200033562000459565b8160405283815260209250868385880101111562000351578485fd5b8491505b8382101562000374578582018301518183018401529082019062000355565b838211156200038557848385830101525b9695505050505050565b600080600060608486031215620003a4578283fd5b83516001600160401b0380821115620003bb578485fd5b620003c987838801620002dc565b94506020860151915080821115620003df578384fd5b620003ed87838801620002dc565b9350604086015191508082111562000403578283fd5b506200041286828701620002dc565b9150509250925092565b6002810460018216806200043157607f821691505b602082108114156200045357634e487b7160e01b600052602260045260246000fd5b50919050565b634e487b7160e01b600052604160045260246000fd5b612ac9806200047f6000396000f3fe608060405234801561001057600080fd5b506004361061021c5760003560e01c80636352211e11610125578063b88d4fde116100ad578063d53913931161007c578063d539139314610460578063d547741f14610468578063e63ab1e91461047b578063e985e9c514610483578063f92285ca146104965761021c565b8063b88d4fde14610414578063c87b56dd14610427578063ca15c8731461043a578063d2422c0d1461044d5761021c565b80639010d07c116100f45780639010d07c146103cb57806391d14854146103de57806395d89b41146103f1578063a217fddf146103f9578063a22cb465146104015761021c565b80636352211e1461037f57806370a082311461039257806375de8326146103a55780638ceb871c146103b85761021c565b80632b493b8a116101a857806336568abe1161017757806336568abe14610336578063405e17531461034957806342842e0e146103515780634f6ccce7146103645780635c975abb146103775761021c565b80632b493b8a146102ea5780632ed4a77d146102fd5780632f2ff15d146103105780632f745c59146103235761021c565b806317dc5ce2116101ef57806317dc5ce21461029457806318160ddd1461029c57806323b872dd146102b1578063248a9ca3146102c45780632a04b41e146102d75761021c565b806301ffc9a71461022157806306fdde031461024a578063081812fc1461025f578063095ea7b31461027f575b600080fd5b61023461022f366004611f99565b6104a9565b604051610241919061209f565b60405180910390f35b6102526104bc565b60405161024191906120b3565b61027261026d366004611f3e565b61054e565b604051610241919061204e565b61029261028d366004611f15565b61059a565b005b610292610632565b6102a4610665565b60405161024191906120aa565b6102926102bf366004611dd9565b61066b565b6102a46102d2366004611f3e565b6106c8565b6102526102e5366004611f3e565b6106dd565b6102a46102f8366004611eb6565b6107d4565b61029261030b366004611f3e565b61083e565b61029261031e366004611f56565b610873565b6102a4610331366004611f15565b610895565b610292610344366004611f56565b6108e7565b61029261092d565b61029261035f366004611dd9565b61095e565b6102a4610372366004611f3e565b610979565b6102346109d4565b61027261038d366004611f3e565b6109dd565b6102a46103a0366004611d8d565b610a12565b6102926103b3366004611e14565b610a56565b6102346103c6366004611f3e565b610a91565b6102726103d9366004611f78565b610ace565b6102346103ec366004611f56565b610ae6565b610252610b0f565b6102a4610b1e565b61029261040f366004611e8d565b610b23565b610292610422366004611e14565b610bf1565b610252610435366004611f3e565b610c43565b6102a4610448366004611f3e565b610cc6565b61029261045b366004611fd1565b610cdd565b6102a4610d4b565b610292610476366004611f56565b610d6f565b6102a4610d91565b610234610491366004611da7565b610db5565b6102926104a4366004611dd9565b610de3565b60006104b482610e2b565b90505b919050565b6060600280546104cb906129b1565b80601f01602080910402602001604051908101604052809291908181526020018280546104f7906129b1565b80156105445780601f1061051957610100808354040283529160200191610544565b820191906000526020600020905b81548152906001019060200180831161052757829003601f168201915b5050505050905090565b600061055982610e50565b61057e5760405162461bcd60e51b81526004016105759061264e565b60405180910390fd5b506000908152600660205260409020546001600160a01b031690565b60006105a5826109dd565b9050806001600160a01b0316836001600160a01b031614156105d95760405162461bcd60e51b81526004016105759061277e565b806001600160a01b03166105eb610e6d565b6001600160a01b03161480610607575061060781610491610e6d565b6106235760405162461bcd60e51b815260040161057590612529565b61062d8383610e71565b505050565b61063f60006103ec610e6d565b61065b5760405162461bcd60e51b8152600401610575906122a4565b610663610edf565b565b600a5490565b61067481610a91565b6106905760405162461bcd60e51b8152600401610575906123c7565b6106a161069b610e6d565b82610f51565b6106bd5760405162461bcd60e51b8152600401610575906127bf565b61062d838383610fd6565b60009081526020819052604090206001015490565b60606106e882610e50565b6107045760405162461bcd60e51b81526004016105759061272f565b6000828152600f60205260408120805461071d906129b1565b80601f0160208091040260200160405190810160405280929190818152602001828054610749906129b1565b80156107965780601f1061076b57610100808354040283529160200191610796565b820191906000526020600020905b81548152906001019060200180831161077957829003601f168201915b5050505050905060006107a7611103565b905080826040516020016107bc92919061201f565b60405160208183030381529060405292505050919050565b60006107e2816103ec610e6d565b6107fe5760405162461bcd60e51b81526004016105759061285c565b610808600d611112565b6000610814600d61111b565b9050610820848261111f565b61082a81846111fe565b610835816001610cdd565b90505b92915050565b61084b60006103ec610e6d565b6108675760405162461bcd60e51b8152600401610575906122ef565b6108708161126b565b50565b61087d8282611312565b600082815260016020526040902061062d9082610e16565b60006108a083610a12565b82106108be5760405162461bcd60e51b8152600401610575906121d0565b506001600160a01b03919091166000908152600860209081526040808320938352929052205490565b6108ef610e6d565b6001600160a01b0316816001600160a01b03161461091f5760405162461bcd60e51b8152600401610575906128f3565b6109298282611342565b5050565b61093a60006103ec610e6d565b6109565760405162461bcd60e51b8152600401610575906128a7565b6106636113c5565b61062d83838360405180602001604052806000815250610bf1565b6000610983610665565b82106109a15760405162461bcd60e51b815260040161057590612810565b600a82815481106109c257634e487b7160e01b600052603260045260246000fd5b90600052602060002001549050919050565b600c5460ff1690565b6000818152600460205260408120546001600160a01b0316806104b45760405162461bcd60e51b8152600401610575906125d0565b60006001600160a01b038216610a3a5760405162461bcd60e51b815260040161057590612586565b506001600160a01b031660009081526005602052604090205490565b610a6360006103ec610e6d565b610a7f5760405162461bcd60e51b8152600401610575906122ef565b610a8b8484848461141c565b50505050565b6000610a9c82610e50565b610ab85760405162461bcd60e51b81526004016105759061272f565b506000908152600e602052604090205460ff1690565b6000828152600160205260408120610835908361144f565b6000918252602082815260408084206001600160a01b0393909316845291905290205460ff1690565b6060600380546104cb906129b1565b600081565b610b2b610e6d565b6001600160a01b0316826001600160a01b03161415610b5c5760405162461bcd60e51b815260040161057590612390565b8060076000610b69610e6d565b6001600160a01b03908116825260208083019390935260409182016000908120918716808252919093529120805460ff191692151592909217909155610bad610e6d565b6001600160a01b03167f17307eab39ab6107e8899845ad3d59bd9653f200f220920489ca2b5937696c3183604051610be5919061209f565b60405180910390a35050565b610bfa82610a91565b610c165760405162461bcd60e51b815260040161057590612418565b610c27610c21610e6d565b83610f51565b610a7f5760405162461bcd60e51b8152600401610575906127bf565b6060610c4e82610e50565b610c6a5760405162461bcd60e51b81526004016105759061272f565b6000610c74611103565b90506000815111610c945760405180602001604052806000815250610cbf565b80610c9e8461145b565b604051602001610caf92919061201f565b6040516020818303038152906040525b9392505050565b60008181526001602052604081206104b490611576565b610cea60006103ec610e6d565b610d065760405162461bcd60e51b81526004016105759061285c565b610d0f82610e50565b610d2b5760405162461bcd60e51b81526004016105759061269a565b6000918252600e6020526040909120805460ff1916911515919091179055565b7f9f2df0fed2c77648de5860a4cc508cd0818c85b8b8a1ab4ceeef8d981c8956a681565b610d798282611581565b600082815260016020526040902061062d90826115a9565b7f65d7a28e3265b37a6474929f336521b332c1681b933f6cb9f3376673440d862a81565b6001600160a01b03918216600090815260076020908152604080832093909416825291909152205460ff1690565b610df060006103ec610e6d565b6106bd5760405162461bcd60e51b8152600401610575906122ef565b61092982826115be565b6000610835836001600160a01b038416611643565b60006001600160e01b0319821663780e9d6360e01b14806104b457506104b48261168d565b6000908152600460205260409020546001600160a01b0316151590565b3390565b600081815260066020526040902080546001600160a01b0319166001600160a01b0384169081179091558190610ea6826109dd565b6001600160a01b03167f8c5be1e5ebec7d5bd14f71427d1e84f3dd0314c0f7b2291e5b200ac8c7c3b92560405160405180910390a45050565b610ee76109d4565b15610f045760405162461bcd60e51b8152600401610575906124ff565b600c805460ff191660011790557f62e78cea01bee320cd4e420270b5ea74000d11b0c9f74754ebdbfc544b05a258610f3a610e6d565b604051610f47919061204e565b60405180910390a1565b6000610f5c82610e50565b610f785760405162461bcd60e51b815260040161057590612463565b6000610f83836109dd565b9050806001600160a01b0316846001600160a01b03161480610fbe5750836001600160a01b0316610fb38461054e565b6001600160a01b0316145b80610fce5750610fce8185610db5565b949350505050565b826001600160a01b0316610fe9826109dd565b6001600160a01b03161461100f5760405162461bcd60e51b8152600401610575906126e6565b6001600160a01b0382166110355760405162461bcd60e51b81526004016105759061234c565b6110408383836116cd565b61104b600082610e71565b6001600160a01b038316600090815260056020526040812080546001929061107490849061296e565b90915550506001600160a01b03821660009081526005602052604081208054600192906110a2908490612942565b909155505060008181526004602052604080822080546001600160a01b0319166001600160a01b0386811691821790925591518493918716917fddf252ad1be2c89b69c2b068fc378daa952ba7f163c4a11628f55a4df523b3ef91a4505050565b6060601080546104cb906129b1565b80546001019055565b5490565b6001600160a01b0382166111455760405162461bcd60e51b815260040161057590612619565b61114e81610e50565b1561116b5760405162461bcd60e51b81526004016105759061226d565b611177600083836116cd565b6001600160a01b03821660009081526005602052604081208054600192906111a0908490612942565b909155505060008181526004602052604080822080546001600160a01b0319166001600160a01b03861690811790915590518392907fddf252ad1be2c89b69c2b068fc378daa952ba7f163c4a11628f55a4df523b3ef908290a45050565b61120b60006103ec610e6d565b6112275760405162461bcd60e51b81526004016105759061285c565b61123082610e50565b61124c5760405162461bcd60e51b81526004016105759061269a565b6000828152600f60209081526040909120825161062d92840190611c57565b6000611276826109dd565b9050611284816000846116cd565b61128f600083610e71565b6001600160a01b03811660009081526005602052604081208054600192906112b890849061296e565b909155505060008281526004602052604080822080546001600160a01b0319169055518391906001600160a01b038416907fddf252ad1be2c89b69c2b068fc378daa952ba7f163c4a11628f55a4df523b3ef908390a45050565b61132661131e836106c8565b6103ec610e6d565b610e0c5760405162461bcd60e51b815260040161057590612153565b61134c8282610ae6565b15610929576000828152602081815260408083206001600160a01b03851684529091529020805460ff19169055611381610e6d565b6001600160a01b0316816001600160a01b0316837ff6391f5c32d9c69d2a47ea670b442974b53935d1edc7fd64eb21e047a839171b60405160405180910390a45050565b6113cd6109d4565b6113e95760405162461bcd60e51b8152600401610575906121a2565b600c805460ff191690557f5db9ee0a495bf2e6ff9c91a7834c1ba4fdd244a5e8aa4e537bd38aeae4b073aa610f3a610e6d565b611427848484610fd6565b611433848484846116d8565b610a8b5760405162461bcd60e51b81526004016105759061221b565b600061083583836117f3565b60608161148057506040805180820190915260018152600360fc1b60208201526104b7565b8160005b81156114aa5780611494816129ec565b91506114a39050600a8361295a565b9150611484565b60008167ffffffffffffffff8111156114d357634e487b7160e01b600052604160045260246000fd5b6040519080825280601f01601f1916602001820160405280156114fd576020820181803683370190505b5090505b8415610fce5761151260018361296e565b915061151f600a86612a07565b61152a906030612942565b60f81b81838151811061154d57634e487b7160e01b600052603260045260246000fd5b60200101906001600160f81b031916908160001a90535061156f600a8661295a565b9450611501565b60006104b48261111b565b61158d61131e836106c8565b61091f5760405162461bcd60e51b8152600401610575906124af565b6000610835836001600160a01b03841661184c565b6115c88282610ae6565b610929576000828152602081815260408083206001600160a01b03851684529091529020805460ff191660011790556115ff610e6d565b6001600160a01b0316816001600160a01b0316837f2f8788117e7eff1d82e926ec794901d17c78024a50270940304540a733656f0d60405160405180910390a45050565b600061164f8383611969565b61168557508154600181810184556000848152602080822090930184905584548482528286019093526040902091909155610838565b506000610838565b60006001600160e01b031982166380ac58cd60e01b14806116be57506001600160e01b03198216635b5e139f60e01b145b806104b457506104b482611981565b61062d83838361199a565b60006116ec846001600160a01b03166119ca565b156117e857836001600160a01b031663150b7a02611708610e6d565b8786866040518563ffffffff1660e01b815260040161172a9493929190612062565b602060405180830381600087803b15801561174457600080fd5b505af1925050508015611774575060408051601f3d908101601f1916820190925261177191810190611fb5565b60015b6117ce573d8080156117a2576040519150601f19603f3d011682016040523d82523d6000602084013e6117a7565b606091505b5080516117c65760405162461bcd60e51b81526004016105759061221b565b805181602001fd5b6001600160e01b031916630a85bd0160e11b149050610fce565b506001949350505050565b815460009082106118165760405162461bcd60e51b8152600401610575906120c6565b82600001828154811061183957634e487b7160e01b600052603260045260246000fd5b9060005260206000200154905092915050565b6000818152600183016020526040812054801561195f57600061187060018361296e565b85549091506000906118849060019061296e565b905060008660000182815481106118ab57634e487b7160e01b600052603260045260246000fd5b90600052602060002001549050808760000184815481106118dc57634e487b7160e01b600052603260045260246000fd5b6000918252602090912001556118f3836001612942565b6000828152600189016020526040902055865487908061192357634e487b7160e01b600052603160045260246000fd5b60019003818190600052602060002001600090559055866001016000878152602001908152602001600020600090556001945050505050610838565b6000915050610838565b60009081526001919091016020526040902054151590565b6001600160e01b031981166301ffc9a760e01b14919050565b6119a58383836119d0565b6119ad6109d4565b1561062d5760405162461bcd60e51b815260040161057590612108565b3b151590565b6119db83838361062d565b6001600160a01b0383166119f7576119f281611a59565b611a1a565b816001600160a01b0316836001600160a01b031614611a1a57611a1a8382611a9d565b6001600160a01b038216611a3657611a3181611b3a565b61062d565b826001600160a01b0316826001600160a01b03161461062d5761062d8282611c13565b600a80546000838152600b60205260408120829055600182018355919091527fc65a7bb8d6351c1cf70c95a316cc6a92839c986682d98bc35f958f4883f9d2a80155565b60006001611aaa84610a12565b611ab4919061296e565b600083815260096020526040902054909150808214611b07576001600160a01b03841660009081526008602090815260408083208584528252808320548484528184208190558352600990915290208190555b5060009182526009602090815260408084208490556001600160a01b039094168352600881528383209183525290812055565b600a54600090611b4c9060019061296e565b6000838152600b6020526040812054600a8054939450909284908110611b8257634e487b7160e01b600052603260045260246000fd5b9060005260206000200154905080600a8381548110611bb157634e487b7160e01b600052603260045260246000fd5b6000918252602080832090910192909255828152600b9091526040808220849055858252812055600a805480611bf757634e487b7160e01b600052603160045260246000fd5b6001900381819060005260206000200160009055905550505050565b6000611c1e83610a12565b6001600160a01b039093166000908152600860209081526040808320868452825280832085905593825260099052919091209190915550565b828054611c63906129b1565b90600052602060002090601f016020900481019282611c855760008555611ccb565b82601f10611c9e57805160ff1916838001178555611ccb565b82800160010185558215611ccb579182015b82811115611ccb578251825591602001919060010190611cb0565b50611cd7929150611cdb565b5090565b5b80821115611cd75760008155600101611cdc565b600067ffffffffffffffff80841115611d0b57611d0b612a47565b604051601f8501601f19908116603f01168101908282118183101715611d3357611d33612a47565b81604052809350858152868686011115611d4c57600080fd5b858560208301376000602087830101525050509392505050565b80356001600160a01b03811681146104b757600080fd5b803580151581146104b757600080fd5b600060208284031215611d9e578081fd5b61083582611d66565b60008060408385031215611db9578081fd5b611dc283611d66565b9150611dd060208401611d66565b90509250929050565b600080600060608486031215611ded578081fd5b611df684611d66565b9250611e0460208501611d66565b9150604084013590509250925092565b60008060008060808587031215611e29578081fd5b611e3285611d66565b9350611e4060208601611d66565b925060408501359150606085013567ffffffffffffffff811115611e62578182fd5b8501601f81018713611e72578182fd5b611e8187823560208401611cf0565b91505092959194509250565b60008060408385031215611e9f578182fd5b611ea883611d66565b9150611dd060208401611d7d565b60008060408385031215611ec8578182fd5b611ed183611d66565b9150602083013567ffffffffffffffff811115611eec578182fd5b8301601f81018513611efc578182fd5b611f0b85823560208401611cf0565b9150509250929050565b60008060408385031215611f27578182fd5b611f3083611d66565b946020939093013593505050565b600060208284031215611f4f578081fd5b5035919050565b60008060408385031215611f68578182fd5b82359150611dd060208401611d66565b60008060408385031215611f8a578182fd5b50508035926020909101359150565b600060208284031215611faa578081fd5b813561083581612a5d565b600060208284031215611fc6578081fd5b815161083581612a5d565b60008060408385031215611fe3578182fd5b82359150611dd060208401611d7d565b6000815180845261200b816020860160208601612985565b601f01601f19169290920160200192915050565b60008351612031818460208801612985565b835190830190612045818360208801612985565b01949350505050565b6001600160a01b0391909116815260200190565b6001600160a01b038581168252841660208201526040810183905260806060820181905260009061209590830184611ff3565b9695505050505050565b901515815260200190565b90815260200190565b6000602082526108356020830184611ff3565b60208082526022908201527f456e756d657261626c655365743a20696e646578206f7574206f6620626f756e604082015261647360f01b606082015260800190565b6020808252602b908201527f4552433732315061757361626c653a20746f6b656e207472616e73666572207760408201526a1a1a5b19481c185d5cd95960aa1b606082015260800190565b6020808252602f908201527f416363657373436f6e74726f6c3a2073656e646572206d75737420626520616e60408201526e0818591b5a5b881d1bc819dc985b9d608a1b606082015260800190565b60208082526014908201527314185d5cd8589b194e881b9bdd081c185d5cd95960621b604082015260600190565b6020808252602b908201527f455243373231456e756d657261626c653a206f776e657220696e646578206f7560408201526a74206f6620626f756e647360a81b606082015260800190565b60208082526032908201527f4552433732313a207472616e7366657220746f206e6f6e20455243373231526560408201527131b2b4bb32b91034b6b83632b6b2b73a32b960711b606082015260800190565b6020808252601c908201527f4552433732313a20746f6b656e20616c7265616479206d696e74656400000000604082015260600190565b6020808252603e90820152600080516020612a7483398151915260408201527f6d75737420686176652070617573657220726f6c6520746f2070617573650000606082015260800190565b6020808252604990820152600080516020612a7483398151915260408201527f6d75737420686176652061646d696e20726f6c6520746f20757365207468697360608201526810333ab731ba34b7b760b91b608082015260a00190565b60208082526024908201527f4552433732313a207472616e7366657220746f20746865207a65726f206164646040820152637265737360e01b606082015260800190565b60208082526019908201527f4552433732313a20617070726f766520746f2063616c6c657200000000000000604082015260600190565b60208082526031908201527f5468697320746f6b656e20746f6b656e206973206e6f74207472616e7366657260408201527061626c6520617420746869732074696d6560781b606082015260800190565b6020808252602b908201527f5468697320746f6b656e206973206e6f74207472616e7366657261626c65206160408201526a7420746869732074696d6560a81b606082015260800190565b6020808252602c908201527f4552433732313a206f70657261746f7220717565727920666f72206e6f6e657860408201526b34b9ba32b73a103a37b5b2b760a11b606082015260800190565b60208082526030908201527f416363657373436f6e74726f6c3a2073656e646572206d75737420626520616e60408201526f2061646d696e20746f207265766f6b6560801b606082015260800190565b60208082526010908201526f14185d5cd8589b194e881c185d5cd95960821b604082015260600190565b60208082526038908201527f4552433732313a20617070726f76652063616c6c6572206973206e6f74206f7760408201527f6e6572206e6f7220617070726f76656420666f7220616c6c0000000000000000606082015260800190565b6020808252602a908201527f4552433732313a2062616c616e636520717565727920666f7220746865207a65604082015269726f206164647265737360b01b606082015260800190565b60208082526029908201527f4552433732313a206f776e657220717565727920666f72206e6f6e657869737460408201526832b73a103a37b5b2b760b91b606082015260800190565b6020808252818101527f4552433732313a206d696e7420746f20746865207a65726f2061646472657373604082015260600190565b6020808252602c908201527f4552433732313a20617070726f76656420717565727920666f72206e6f6e657860408201526b34b9ba32b73a103a37b5b2b760a11b606082015260800190565b6020808252602c908201527f4552433732314d657461646174613a2055524920736574206f66206e6f6e657860408201526b34b9ba32b73a103a37b5b2b760a11b606082015260800190565b60208082526029908201527f4552433732313a207472616e73666572206f6620746f6b656e2074686174206960408201526839903737ba1037bbb760b91b606082015260800190565b6020808252602f908201527f4552433732314d657461646174613a2055524920717565727920666f72206e6f60408201526e3732bc34b9ba32b73a103a37b5b2b760891b606082015260800190565b60208082526021908201527f4552433732313a20617070726f76616c20746f2063757272656e74206f776e656040820152603960f91b606082015260800190565b60208082526031908201527f4552433732313a207472616e736665722063616c6c6572206973206e6f74206f6040820152701ddb995c881b9bdc88185c1c1c9bdd9959607a1b606082015260800190565b6020808252602c908201527f455243373231456e756d657261626c653a20676c6f62616c20696e646578206f60408201526b7574206f6620626f756e647360a01b606082015260800190565b6020808252603d90820152600080516020612a7483398151915260408201527f6d7573742068617665206d696e74657220726f6c6520746f206d696e74000000606082015260800190565b60208082526040908201819052600080516020612a74833981519152908201527f6d75737420686176652070617573657220726f6c6520746f20756e7061757365606082015260800190565b6020808252602f908201527f416363657373436f6e74726f6c3a2063616e206f6e6c792072656e6f756e636560408201526e103937b632b9903337b91039b2b63360891b606082015260800190565b6000821982111561295557612955612a1b565b500190565b60008261296957612969612a31565b500490565b60008282101561298057612980612a1b565b500390565b60005b838110156129a0578181015183820152602001612988565b83811115610a8b5750506000910152565b6002810460018216806129c557607f821691505b602082108114156129e657634e487b7160e01b600052602260045260246000fd5b50919050565b6000600019821415612a0057612a00612a1b565b5060010190565b600082612a1657612a16612a31565b500690565b634e487b7160e01b600052601160045260246000fd5b634e487b7160e01b600052601260045260246000fd5b634e487b7160e01b600052604160045260246000fd5b6001600160e01b03198116811461087057600080fdfe4552433732315072657365744d696e7465725061757365724175746f49643a20a2646970667358221220cd0fa617cf18ea22aa9546d1696e6b934a7a01d84dd918176968220ebd958d7e64736f6c63430008010033",
    "sourcePath": "c:/GitHub/openzeppelin/tokew_contract_0.1.sol",
    "compiler": {
        "name": "solc",
        "version": "0.8.1+commit.df193b15"
    },
    "functionHashes": {
        "DEFAULT_ADMIN_ROLE()": "a217fddf",
        "MINTER_ROLE()": "d5391393",
        "PAUSER_ROLE()": "e63ab1e9",
        "admBurn(uint256)": "2ed4a77d",
        "admMint(address,string)": "2b493b8a",
        "admPause()": "17dc5ce2",
        "admSafeTransferFrom(address,address,uint256,bytes)": "75de8326",
        "admSetTokenIsTransferable(uint256,bool)": "d2422c0d",
        "admTokenURI(uint256)": "2a04b41e",
        "admTransferFrom(address,address,uint256)": "f92285ca",
        "admUnpause()": "405e1753",
        "approve(address,uint256)": "095ea7b3",
        "balanceOf(address)": "70a08231",
        "getApproved(uint256)": "081812fc",
        "getRoleAdmin(bytes32)": "248a9ca3",
        "getRoleMember(bytes32,uint256)": "9010d07c",
        "getRoleMemberCount(bytes32)": "ca15c873",
        "grantRole(bytes32,address)": "2f2ff15d",
        "hasRole(bytes32,address)": "91d14854",
        "isApprovedForAll(address,address)": "e985e9c5",
        "name()": "06fdde03",
        "ownerOf(uint256)": "6352211e",
        "paused()": "5c975abb",
        "renounceRole(bytes32,address)": "36568abe",
        "revokeRole(bytes32,address)": "d547741f",
        "safeTransferFrom(address,address,uint256)": "42842e0e",
        "safeTransferFrom(address,address,uint256,bytes)": "b88d4fde",
        "setApprovalForAll(address,bool)": "a22cb465",
        "supportsInterface(bytes4)": "01ffc9a7",
        "symbol()": "95d89b41",
        "tokenByIndex(uint256)": "4f6ccce7",
        "tokenIsTransferable(uint256)": "8ceb871c",
        "tokenOfOwnerByIndex(address,uint256)": "2f745c59",
        "tokenURI(uint256)": "c87b56dd",
        "totalSupply()": "18160ddd",
        "transferFrom(address,address,uint256)": "23b872dd"
    },
    "gasEstimates": {
        "creation": {
            "codeDepositCost": "2190600",
            "executionCost": "infinite",
            "totalCost": "infinite"
        },
        "external": {
            "DEFAULT_ADMIN_ROLE()": "339",
            "MINTER_ROLE()": "272",
            "PAUSER_ROLE()": "316",
            "admBurn(uint256)": "infinite",
            "admMint(address,string)": "infinite",
            "admPause()": "infinite",
            "admSafeTransferFrom(address,address,uint256,bytes)": "infinite",
            "admSetTokenIsTransferable(uint256,bool)": "23313",
            "admTokenURI(uint256)": "infinite",
            "admTransferFrom(address,address,uint256)": "infinite",
            "admUnpause()": "infinite",
            "approve(address,uint256)": "infinite",
            "balanceOf(address)": "1382",
            "getApproved(uint256)": "2246",
            "getRoleAdmin(bytes32)": "1292",
            "getRoleMember(bytes32,uint256)": "infinite",
            "getRoleMemberCount(bytes32)": "infinite",
            "grantRole(bytes32,address)": "infinite",
            "hasRole(bytes32,address)": "1450",
            "isApprovedForAll(address,address)": "infinite",
            "name()": "infinite",
            "ownerOf(uint256)": "1323",
            "paused()": "1173",
            "renounceRole(bytes32,address)": "infinite",
            "revokeRole(bytes32,address)": "infinite",
            "safeTransferFrom(address,address,uint256)": "infinite",
            "safeTransferFrom(address,address,uint256,bytes)": "infinite",
            "setApprovalForAll(address,bool)": "infinite",
            "supportsInterface(bytes4)": "infinite",
            "symbol()": "infinite",
            "tokenByIndex(uint256)": "2959",
            "tokenIsTransferable(uint256)": "2237",
            "tokenOfOwnerByIndex(address,uint256)": "2463",
            "tokenURI(uint256)": "infinite",
            "totalSupply()": "1096",
            "transferFrom(address,address,uint256)": "infinite"
        },
        "internal": {
            "_baseURI()": "infinite",
            "_beforeTokenTransfer(address,address,uint256)": "infinite",
            "_setTokenURI(uint256,string memory)": "infinite"
        }
    }
}