{
    "contractName": "MyNFT",
    "abi": [
        {
            "inputs": [],
            "stateMutability": "nonpayable",
            "type": "constructor"
        },
        {
            "anonymous": false,
            "inputs": [
                {
                    "indexed": true,
                    "internalType": "address",
                    "name": "owner",
                    "type": "address"
                },
                {
                    "indexed": true,
                    "internalType": "address",
                    "name": "approved",
                    "type": "address"
                },
                {
                    "indexed": true,
                    "internalType": "uint256",
                    "name": "tokenId",
                    "type": "uint256"
                }
            ],
            "name": "Approval",
            "type": "event"
        },
        {
            "anonymous": false,
            "inputs": [
                {
                    "indexed": true,
                    "internalType": "address",
                    "name": "owner",
                    "type": "address"
                },
                {
                    "indexed": true,
                    "internalType": "address",
                    "name": "operator",
                    "type": "address"
                },
                {
                    "indexed": false,
                    "internalType": "bool",
                    "name": "approved",
                    "type": "bool"
                }
            ],
            "name": "ApprovalForAll",
            "type": "event"
        },
        {
            "anonymous": false,
            "inputs": [
                {
                    "indexed": false,
                    "internalType": "address",
                    "name": "account",
                    "type": "address"
                }
            ],
            "name": "Paused",
            "type": "event"
        },
        {
            "anonymous": false,
            "inputs": [
                {
                    "indexed": true,
                    "internalType": "bytes32",
                    "name": "role",
                    "type": "bytes32"
                },
                {
                    "indexed": true,
                    "internalType": "bytes32",
                    "name": "previousAdminRole",
                    "type": "bytes32"
                },
                {
                    "indexed": true,
                    "internalType": "bytes32",
                    "name": "newAdminRole",
                    "type": "bytes32"
                }
            ],
            "name": "RoleAdminChanged",
            "type": "event"
        },
        {
            "anonymous": false,
            "inputs": [
                {
                    "indexed": true,
                    "internalType": "bytes32",
                    "name": "role",
                    "type": "bytes32"
                },
                {
                    "indexed": true,
                    "internalType": "address",
                    "name": "account",
                    "type": "address"
                },
                {
                    "indexed": true,
                    "internalType": "address",
                    "name": "sender",
                    "type": "address"
                }
            ],
            "name": "RoleGranted",
            "type": "event"
        },
        {
            "anonymous": false,
            "inputs": [
                {
                    "indexed": true,
                    "internalType": "bytes32",
                    "name": "role",
                    "type": "bytes32"
                },
                {
                    "indexed": true,
                    "internalType": "address",
                    "name": "account",
                    "type": "address"
                },
                {
                    "indexed": true,
                    "internalType": "address",
                    "name": "sender",
                    "type": "address"
                }
            ],
            "name": "RoleRevoked",
            "type": "event"
        },
        {
            "anonymous": false,
            "inputs": [
                {
                    "indexed": true,
                    "internalType": "address",
                    "name": "from",
                    "type": "address"
                },
                {
                    "indexed": true,
                    "internalType": "address",
                    "name": "to",
                    "type": "address"
                },
                {
                    "indexed": true,
                    "internalType": "uint256",
                    "name": "tokenId",
                    "type": "uint256"
                }
            ],
            "name": "Transfer",
            "type": "event"
        },
        {
            "anonymous": false,
            "inputs": [
                {
                    "indexed": false,
                    "internalType": "address",
                    "name": "account",
                    "type": "address"
                }
            ],
            "name": "Unpaused",
            "type": "event"
        },
        {
            "inputs": [],
            "name": "DEFAULT_ADMIN_ROLE",
            "outputs": [
                {
                    "internalType": "bytes32",
                    "name": "",
                    "type": "bytes32"
                }
            ],
            "stateMutability": "view",
            "type": "function"
        },
        {
            "inputs": [],
            "name": "MINTER_ROLE",
            "outputs": [
                {
                    "internalType": "bytes32",
                    "name": "",
                    "type": "bytes32"
                }
            ],
            "stateMutability": "view",
            "type": "function"
        },
        {
            "inputs": [],
            "name": "PAUSER_ROLE",
            "outputs": [
                {
                    "internalType": "bytes32",
                    "name": "",
                    "type": "bytes32"
                }
            ],
            "stateMutability": "view",
            "type": "function"
        },
        {
            "inputs": [
                {
                    "internalType": "uint256",
                    "name": "tokenId",
                    "type": "uint256"
                },
                {
                    "internalType": "bool",
                    "name": "_tokenIsTransferable",
                    "type": "bool"
                }
            ],
            "name": "_setTokenIsTransferable",
            "outputs": [],
            "stateMutability": "nonpayable",
            "type": "function"
        },
        {
            "inputs": [
                {
                    "internalType": "address",
                    "name": "to",
                    "type": "address"
                },
                {
                    "internalType": "uint256",
                    "name": "tokenId",
                    "type": "uint256"
                }
            ],
            "name": "approve",
            "outputs": [],
            "stateMutability": "nonpayable",
            "type": "function"
        },
        {
            "inputs": [
                {
                    "internalType": "address",
                    "name": "player",
                    "type": "address"
                },
                {
                    "internalType": "string",
                    "name": "_tokenURI",
                    "type": "string"
                }
            ],
            "name": "awardItem",
            "outputs": [
                {
                    "internalType": "uint256",
                    "name": "",
                    "type": "uint256"
                }
            ],
            "stateMutability": "nonpayable",
            "type": "function"
        },
        {
            "inputs": [
                {
                    "internalType": "address",
                    "name": "owner",
                    "type": "address"
                }
            ],
            "name": "balanceOf",
            "outputs": [
                {
                    "internalType": "uint256",
                    "name": "",
                    "type": "uint256"
                }
            ],
            "stateMutability": "view",
            "type": "function"
        },
        {
            "inputs": [
                {
                    "internalType": "uint256",
                    "name": "tokenId",
                    "type": "uint256"
                }
            ],
            "name": "burn",
            "outputs": [],
            "stateMutability": "nonpayable",
            "type": "function"
        },
        {
            "inputs": [
                {
                    "internalType": "uint256",
                    "name": "tokenId",
                    "type": "uint256"
                }
            ],
            "name": "getApproved",
            "outputs": [
                {
                    "internalType": "address",
                    "name": "",
                    "type": "address"
                }
            ],
            "stateMutability": "view",
            "type": "function"
        },
        {
            "inputs": [
                {
                    "internalType": "bytes32",
                    "name": "role",
                    "type": "bytes32"
                }
            ],
            "name": "getRoleAdmin",
            "outputs": [
                {
                    "internalType": "bytes32",
                    "name": "",
                    "type": "bytes32"
                }
            ],
            "stateMutability": "view",
            "type": "function"
        },
        {
            "inputs": [
                {
                    "internalType": "bytes32",
                    "name": "role",
                    "type": "bytes32"
                },
                {
                    "internalType": "uint256",
                    "name": "index",
                    "type": "uint256"
                }
            ],
            "name": "getRoleMember",
            "outputs": [
                {
                    "internalType": "address",
                    "name": "",
                    "type": "address"
                }
            ],
            "stateMutability": "view",
            "type": "function"
        },
        {
            "inputs": [
                {
                    "internalType": "bytes32",
                    "name": "role",
                    "type": "bytes32"
                }
            ],
            "name": "getRoleMemberCount",
            "outputs": [
                {
                    "internalType": "uint256",
                    "name": "",
                    "type": "uint256"
                }
            ],
            "stateMutability": "view",
            "type": "function"
        },
        {
            "inputs": [
                {
                    "internalType": "bytes32",
                    "name": "role",
                    "type": "bytes32"
                },
                {
                    "internalType": "address",
                    "name": "account",
                    "type": "address"
                }
            ],
            "name": "grantRole",
            "outputs": [],
            "stateMutability": "nonpayable",
            "type": "function"
        },
        {
            "inputs": [
                {
                    "internalType": "bytes32",
                    "name": "role",
                    "type": "bytes32"
                },
                {
                    "internalType": "address",
                    "name": "account",
                    "type": "address"
                }
            ],
            "name": "hasRole",
            "outputs": [
                {
                    "internalType": "bool",
                    "name": "",
                    "type": "bool"
                }
            ],
            "stateMutability": "view",
            "type": "function"
        },
        {
            "inputs": [
                {
                    "internalType": "address",
                    "name": "owner",
                    "type": "address"
                },
                {
                    "internalType": "address",
                    "name": "operator",
                    "type": "address"
                }
            ],
            "name": "isApprovedForAll",
            "outputs": [
                {
                    "internalType": "bool",
                    "name": "",
                    "type": "bool"
                }
            ],
            "stateMutability": "view",
            "type": "function"
        },
        {
            "inputs": [
                {
                    "internalType": "address",
                    "name": "to",
                    "type": "address"
                }
            ],
            "name": "mint",
            "outputs": [],
            "stateMutability": "nonpayable",
            "type": "function"
        },
        {
            "inputs": [],
            "name": "name",
            "outputs": [
                {
                    "internalType": "string",
                    "name": "",
                    "type": "string"
                }
            ],
            "stateMutability": "view",
            "type": "function"
        },
        {
            "inputs": [
                {
                    "internalType": "uint256",
                    "name": "tokenId",
                    "type": "uint256"
                }
            ],
            "name": "ownerOf",
            "outputs": [
                {
                    "internalType": "address",
                    "name": "",
                    "type": "address"
                }
            ],
            "stateMutability": "view",
            "type": "function"
        },
        {
            "inputs": [],
            "name": "pause",
            "outputs": [],
            "stateMutability": "nonpayable",
            "type": "function"
        },
        {
            "inputs": [],
            "name": "paused",
            "outputs": [
                {
                    "internalType": "bool",
                    "name": "",
                    "type": "bool"
                }
            ],
            "stateMutability": "view",
            "type": "function"
        },
        {
            "inputs": [
                {
                    "internalType": "bytes32",
                    "name": "role",
                    "type": "bytes32"
                },
                {
                    "internalType": "address",
                    "name": "account",
                    "type": "address"
                }
            ],
            "name": "renounceRole",
            "outputs": [],
            "stateMutability": "nonpayable",
            "type": "function"
        },
        {
            "inputs": [
                {
                    "internalType": "bytes32",
                    "name": "role",
                    "type": "bytes32"
                },
                {
                    "internalType": "address",
                    "name": "account",
                    "type": "address"
                }
            ],
            "name": "revokeRole",
            "outputs": [],
            "stateMutability": "nonpayable",
            "type": "function"
        },
        {
            "inputs": [
                {
                    "internalType": "address",
                    "name": "from",
                    "type": "address"
                },
                {
                    "internalType": "address",
                    "name": "to",
                    "type": "address"
                },
                {
                    "internalType": "uint256",
                    "name": "tokenId",
                    "type": "uint256"
                }
            ],
            "name": "safeTransferFrom",
            "outputs": [],
            "stateMutability": "nonpayable",
            "type": "function"
        },
        {
            "inputs": [
                {
                    "internalType": "address",
                    "name": "from",
                    "type": "address"
                },
                {
                    "internalType": "address",
                    "name": "to",
                    "type": "address"
                },
                {
                    "internalType": "uint256",
                    "name": "tokenId",
                    "type": "uint256"
                },
                {
                    "internalType": "bytes",
                    "name": "_data",
                    "type": "bytes"
                }
            ],
            "name": "safeTransferFrom",
            "outputs": [],
            "stateMutability": "nonpayable",
            "type": "function"
        },
        {
            "inputs": [
                {
                    "internalType": "address",
                    "name": "operator",
                    "type": "address"
                },
                {
                    "internalType": "bool",
                    "name": "approved",
                    "type": "bool"
                }
            ],
            "name": "setApprovalForAll",
            "outputs": [],
            "stateMutability": "nonpayable",
            "type": "function"
        },
        {
            "inputs": [
                {
                    "internalType": "bytes4",
                    "name": "interfaceId",
                    "type": "bytes4"
                }
            ],
            "name": "supportsInterface",
            "outputs": [
                {
                    "internalType": "bool",
                    "name": "",
                    "type": "bool"
                }
            ],
            "stateMutability": "view",
            "type": "function"
        },
        {
            "inputs": [],
            "name": "symbol",
            "outputs": [
                {
                    "internalType": "string",
                    "name": "",
                    "type": "string"
                }
            ],
            "stateMutability": "view",
            "type": "function"
        },
        {
            "inputs": [
                {
                    "internalType": "uint256",
                    "name": "index",
                    "type": "uint256"
                }
            ],
            "name": "tokenByIndex",
            "outputs": [
                {
                    "internalType": "uint256",
                    "name": "",
                    "type": "uint256"
                }
            ],
            "stateMutability": "view",
            "type": "function"
        },
        {
            "inputs": [
                {
                    "internalType": "uint256",
                    "name": "tokenId",
                    "type": "uint256"
                }
            ],
            "name": "tokenIsTransferable",
            "outputs": [
                {
                    "internalType": "bool",
                    "name": "",
                    "type": "bool"
                }
            ],
            "stateMutability": "view",
            "type": "function"
        },
        {
            "inputs": [
                {
                    "internalType": "address",
                    "name": "owner",
                    "type": "address"
                },
                {
                    "internalType": "uint256",
                    "name": "index",
                    "type": "uint256"
                }
            ],
            "name": "tokenOfOwnerByIndex",
            "outputs": [
                {
                    "internalType": "uint256",
                    "name": "",
                    "type": "uint256"
                }
            ],
            "stateMutability": "view",
            "type": "function"
        },
        {
            "inputs": [
                {
                    "internalType": "uint256",
                    "name": "tokenId",
                    "type": "uint256"
                }
            ],
            "name": "tokenURI",
            "outputs": [
                {
                    "internalType": "string",
                    "name": "",
                    "type": "string"
                }
            ],
            "stateMutability": "view",
            "type": "function"
        },
        {
            "inputs": [],
            "name": "totalSupply",
            "outputs": [
                {
                    "internalType": "uint256",
                    "name": "",
                    "type": "uint256"
                }
            ],
            "stateMutability": "view",
            "type": "function"
        },
        {
            "inputs": [
                {
                    "internalType": "address",
                    "name": "from",
                    "type": "address"
                },
                {
                    "internalType": "address",
                    "name": "to",
                    "type": "address"
                },
                {
                    "internalType": "uint256",
                    "name": "tokenId",
                    "type": "uint256"
                }
            ],
            "name": "transferFrom",
            "outputs": [],
            "stateMutability": "nonpayable",
            "type": "function"
        },
        {
            "inputs": [],
            "name": "unpause",
            "outputs": [],
            "stateMutability": "nonpayable",
            "type": "function"
        }
    ],
    "bytecode": "60806040523480156200001157600080fd5b5060405180604001604052806006815260200165135e4813919560d21b8152506040518060400160405280600381526020016213919560ea1b81525060405180604001604052806007815260200166697066733a2f2f60c81b8152508282816002908051906020019062000087929190620002ce565b5080516200009d906003906020840190620002ce565b5050600c805460ff19169055508051620000bf90600e906020840190620002ce565b50620000d66000620000d06200013d565b62000141565b620001057f9f2df0fed2c77648de5860a4cc508cd0818c85b8b8a1ab4ceeef8d981c8956a6620000d06200013d565b620001347f65d7a28e3265b37a6474929f336521b332c1681b933f6cb9f3376673440d862a620000d06200013d565b505050620003b1565b3390565b6200015882826200018460201b62000d781760201c565b60008281526001602090815260409091206200017f91839062000d8262000194821b17901c565b505050565b620001908282620001b4565b5050565b6000620001ab836001600160a01b0384166200023e565b90505b92915050565b620001c082826200028d565b62000190576000828152602081815260408083206001600160a01b03851684529091529020805460ff19166001179055620001fa6200013d565b6001600160a01b0316816001600160a01b0316837f2f8788117e7eff1d82e926ec794901d17c78024a50270940304540a733656f0d60405160405180910390a45050565b60006200024c8383620002b6565b6200028457508154600181810184556000848152602080822090930184905584548482528286019093526040902091909155620001ae565b506000620001ae565b6000918252602082815260408084206001600160a01b0393909316845291905290205460ff1690565b60009081526001919091016020526040902054151590565b828054620002dc9062000374565b90600052602060002090601f0160209004810192826200030057600085556200034b565b82601f106200031b57805160ff19168380011785556200034b565b828001600101855582156200034b579182015b828111156200034b5782518255916020019190600101906200032e565b50620003599291506200035d565b5090565b5b808211156200035957600081556001016200035e565b6002810460018216806200038957607f821691505b60208210811415620003ab57634e487b7160e01b600052602260045260246000fd5b50919050565b61287f80620003c16000396000f3fe608060405234801561001057600080fd5b50600436106102065760003560e01c80636a6278421161011a578063a22cb465116100ad578063cf3783431161007c578063cf37834314610424578063d539139314610437578063d547741f1461043f578063e63ab1e914610452578063e985e9c51461045a57610206565b8063a22cb465146103d8578063b88d4fde146103eb578063c87b56dd146103fe578063ca15c8731461041157610206565b80639010d07c116100e95780639010d07c146103a257806391d14854146103b557806395d89b41146103c8578063a217fddf146103d057610206565b80636a6278421461036157806370a08231146103745780638456cb59146103875780638ceb871c1461038f57610206565b80632f745c591161019d57806342966c681161016c57806342966c681461030d5780634f6ccce7146103205780635c975abb146103335780636352211e1461033b57806367a318561461034e57610206565b80632f745c59146102cc57806336568abe146102df5780633f4ba83a146102f257806342842e0e146102fa57610206565b806318160ddd116101d957806318160ddd1461027e57806323b872dd14610293578063248a9ca3146102a65780632f2ff15d146102b957610206565b806301ffc9a71461020b57806306fdde0314610234578063081812fc14610249578063095ea7b314610269575b600080fd5b61021e610219366004611dea565b61046d565b60405161022b9190611ef0565b60405180910390f35b61023c610480565b60405161022b9190611f04565b61025c610257366004611d8f565b610512565b60405161022b9190611e9f565b61027c610277366004611d66565b61055e565b005b6102866105f6565b60405161022b9190611efb565b61027c6102a1366004611c2a565b6105fc565b6102866102b4366004611d8f565b610659565b61027c6102c7366004611da7565b61066e565b6102866102da366004611d66565b610690565b61027c6102ed366004611da7565b6106e5565b61027c61072b565b61027c610308366004611c2a565b61077d565b61027c61031b366004611d8f565b610798565b61028661032e366004611d8f565b6107cb565b61021e610826565b61025c610349366004611d8f565b61082f565b61027c61035c366004611e22565b610864565b61027c61036f366004611bde565b6108d2565b610286610382366004611bde565b610937565b61027c61097b565b61021e61039d366004611d8f565b6109cb565b61025c6103b0366004611dc9565b610a08565b61021e6103c3366004611da7565b610a27565b61023c610a50565b610286610a5f565b61027c6103e6366004611cde565b610a64565b61027c6103f9366004611c65565b610b32565b61023c61040c366004611d8f565b610b71565b61028661041f366004611d8f565b610c68565b610286610432366004611d07565b610c7f565b610286610ce0565b61027c61044d366004611da7565b610d04565b610286610d26565b61021e610468366004611bf8565b610d4a565b600061047882610d97565b90505b919050565b60606002805461048f906127cc565b80601f01602080910402602001604051908101604052809291908181526020018280546104bb906127cc565b80156105085780601f106104dd57610100808354040283529160200191610508565b820191906000526020600020905b8154815290600101906020018083116104eb57829003601f168201915b5050505050905090565b600061051d82610dbc565b6105425760405162461bcd60e51b815260040161053990612409565b60405180910390fd5b506000908152600660205260409020546001600160a01b031690565b60006105698261082f565b9050806001600160a01b0316836001600160a01b0316141561059d5760405162461bcd60e51b815260040161053990612539565b806001600160a01b03166105af610dd9565b6001600160a01b031614806105cb57506105cb81610468610dd9565b6105e75760405162461bcd60e51b8152600401610539906122e4565b6105f18383610ddd565b505050565b600a5490565b610605816109cb565b6106215760405162461bcd60e51b8152600401610539906121cd565b61063261062c610dd9565b82610e4b565b61064e5760405162461bcd60e51b81526004016105399061257a565b6105f1838383610ed0565b60009081526020819052604090206001015490565b6106788282610ffd565b60008281526001602052604090206105f19082610d82565b600061069b83610937565b82106106b95760405162461bcd60e51b815260040161053990612021565b506001600160a01b03821660009081526008602090815260408083208484529091529020545b92915050565b6106ed610dd9565b6001600160a01b0316816001600160a01b03161461071d5760405162461bcd60e51b815260040161053990612722565b610727828261102d565b5050565b6107577f65d7a28e3265b37a6474929f336521b332c1681b933f6cb9f3376673440d862a6103c3610dd9565b6107735760405162461bcd60e51b8152600401610539906126c4565b61077b6110b0565b565b6105f183838360405180602001604052806000815250610b32565b6107a361062c610dd9565b6107bf5760405162461bcd60e51b815260040161053990612674565b6107c88161111e565b50565b60006107d56105f6565b82106107f35760405162461bcd60e51b8152600401610539906125cb565b600a828154811061081457634e487b7160e01b600052603260045260246000fd5b90600052602060002001549050919050565b600c5460ff1690565b6000818152600460205260408120546001600160a01b0316806104785760405162461bcd60e51b81526004016105399061238b565b61087160006103c3610dd9565b61088d5760405162461bcd60e51b815260040161053990612617565b61089682610dbc565b6108b25760405162461bcd60e51b815260040161053990612455565b600091825260106020526040909120805460ff1916911515919091179055565b6108fe7f9f2df0fed2c77648de5860a4cc508cd0818c85b8b8a1ab4ceeef8d981c8956a66103c3610dd9565b61091a5760405162461bcd60e51b815260040161053990612617565b61092d81610928600d6111c5565b6111c9565b6107c8600d6112a8565b60006001600160a01b03821661095f5760405162461bcd60e51b815260040161053990612341565b506001600160a01b031660009081526005602052604090205490565b6109a77f65d7a28e3265b37a6474929f336521b332c1681b933f6cb9f3376673440d862a6103c3610dd9565b6109c35760405162461bcd60e51b8152600401610539906120f5565b61077b6112b1565b60006109d682610dbc565b6109f25760405162461bcd60e51b8152600401610539906124ea565b5060009081526010602052604090205460ff1690565b6000828152600160205260408120610a20908361130c565b9392505050565b6000918252602082815260408084206001600160a01b0393909316845291905290205460ff1690565b60606003805461048f906127cc565b600081565b610a6c610dd9565b6001600160a01b0316826001600160a01b03161415610a9d5760405162461bcd60e51b815260040161053990612196565b8060076000610aaa610dd9565b6001600160a01b03908116825260208083019390935260409182016000908120918716808252919093529120805460ff191692151592909217909155610aee610dd9565b6001600160a01b03167f17307eab39ab6107e8899845ad3d59bd9653f200f220920489ca2b5937696c3183604051610b269190611ef0565b60405180910390a35050565b610b43610b3d610dd9565b83610e4b565b610b5f5760405162461bcd60e51b81526004016105399061257a565b610b6b84848484611318565b50505050565b6060610b7c82610dbc565b610b985760405162461bcd60e51b8152600401610539906124ea565b60008281526011602052604081208054610bb1906127cc565b80601f0160208091040260200160405190810160405280929190818152602001828054610bdd906127cc565b8015610c2a5780601f10610bff57610100808354040283529160200191610c2a565b820191906000526020600020905b815481529060010190602001808311610c0d57829003601f168201915b505050505090506000610c3b61134b565b90508082604051602001610c50929190611e70565b60405160208183030381529060405292505050919050565b60008181526001602052604081206104789061135a565b6000610c8d816103c3610dd9565b610ca95760405162461bcd60e51b815260040161053990612617565b610cb3600f6112a8565b6000610cbf600f6111c5565b9050610ccb84826111c9565b610cd58184611365565b610a20816001610864565b7f9f2df0fed2c77648de5860a4cc508cd0818c85b8b8a1ab4ceeef8d981c8956a681565b610d0e82826113d2565b60008281526001602052604090206105f190826113fa565b7f65d7a28e3265b37a6474929f336521b332c1681b933f6cb9f3376673440d862a81565b6001600160a01b03918216600090815260076020908152604080832093909416825291909152205460ff1690565b610727828261140f565b6000610a20836001600160a01b038416611494565b60006001600160e01b0319821663780e9d6360e01b14806104785750610478826114de565b6000908152600460205260409020546001600160a01b0316151590565b3390565b600081815260066020526040902080546001600160a01b0319166001600160a01b0384169081179091558190610e128261082f565b6001600160a01b03167f8c5be1e5ebec7d5bd14f71427d1e84f3dd0314c0f7b2291e5b200ac8c7c3b92560405160405180910390a45050565b6000610e5682610dbc565b610e725760405162461bcd60e51b81526004016105399061221e565b6000610e7d8361082f565b9050806001600160a01b0316846001600160a01b03161480610eb85750836001600160a01b0316610ead84610512565b6001600160a01b0316145b80610ec85750610ec88185610d4a565b949350505050565b826001600160a01b0316610ee38261082f565b6001600160a01b031614610f095760405162461bcd60e51b8152600401610539906124a1565b6001600160a01b038216610f2f5760405162461bcd60e51b815260040161053990612152565b610f3a83838361151e565b610f45600082610ddd565b6001600160a01b0383166000908152600560205260408120805460019290610f6e908490612789565b90915550506001600160a01b0382166000908152600560205260408120805460019290610f9c908490612771565b909155505060008181526004602052604080822080546001600160a01b0319166001600160a01b0386811691821790925591518493918716917fddf252ad1be2c89b69c2b068fc378daa952ba7f163c4a11628f55a4df523b3ef91a4505050565b61101161100983610659565b6103c3610dd9565b610d785760405162461bcd60e51b815260040161053990611fa4565b6110378282610a27565b15610727576000828152602081815260408083206001600160a01b03851684529091529020805460ff1916905561106c610dd9565b6001600160a01b0316816001600160a01b0316837ff6391f5c32d9c69d2a47ea670b442974b53935d1edc7fd64eb21e047a839171b60405160405180910390a45050565b6110b8610826565b6110d45760405162461bcd60e51b815260040161053990611ff3565b600c805460ff191690557f5db9ee0a495bf2e6ff9c91a7834c1ba4fdd244a5e8aa4e537bd38aeae4b073aa611107610dd9565b6040516111149190611e9f565b60405180910390a1565b60006111298261082f565b90506111378160008461151e565b611142600083610ddd565b6001600160a01b038116600090815260056020526040812080546001929061116b908490612789565b909155505060008281526004602052604080822080546001600160a01b0319169055518391906001600160a01b038416907fddf252ad1be2c89b69c2b068fc378daa952ba7f163c4a11628f55a4df523b3ef908390a45050565b5490565b6001600160a01b0382166111ef5760405162461bcd60e51b8152600401610539906123d4565b6111f881610dbc565b156112155760405162461bcd60e51b8152600401610539906120be565b6112216000838361151e565b6001600160a01b038216600090815260056020526040812080546001929061124a908490612771565b909155505060008181526004602052604080822080546001600160a01b0319166001600160a01b03861690811790915590518392907fddf252ad1be2c89b69c2b068fc378daa952ba7f163c4a11628f55a4df523b3ef908290a45050565b80546001019055565b6112b9610826565b156112d65760405162461bcd60e51b8152600401610539906122ba565b600c805460ff191660011790557f62e78cea01bee320cd4e420270b5ea74000d11b0c9f74754ebdbfc544b05a258611107610dd9565b6000610a208383611529565b611323848484610ed0565b61132f84848484611582565b610b6b5760405162461bcd60e51b81526004016105399061206c565b6060600e805461048f906127cc565b6000610478826111c5565b61137260006103c3610dd9565b61138e5760405162461bcd60e51b815260040161053990612617565b61139782610dbc565b6113b35760405162461bcd60e51b815260040161053990612455565b600082815260116020908152604090912082516105f192840190611aa8565b6113de61100983610659565b61071d5760405162461bcd60e51b81526004016105399061226a565b6000610a20836001600160a01b03841661169d565b6114198282610a27565b610727576000828152602081815260408083206001600160a01b03851684529091529020805460ff19166001179055611450610dd9565b6001600160a01b0316816001600160a01b0316837f2f8788117e7eff1d82e926ec794901d17c78024a50270940304540a733656f0d60405160405180910390a45050565b60006114a083836117ba565b6114d6575081546001818101845560008481526020808220909301849055845484825282860190935260409020919091556106df565b5060006106df565b60006001600160e01b031982166380ac58cd60e01b148061150f57506001600160e01b03198216635b5e139f60e01b145b806104785750610478826117d2565b6105f18383836117eb565b8154600090821061154c5760405162461bcd60e51b815260040161053990611f17565b82600001828154811061156f57634e487b7160e01b600052603260045260246000fd5b9060005260206000200154905092915050565b6000611596846001600160a01b031661181b565b1561169257836001600160a01b031663150b7a026115b2610dd9565b8786866040518563ffffffff1660e01b81526004016115d49493929190611eb3565b602060405180830381600087803b1580156115ee57600080fd5b505af192505050801561161e575060408051601f3d908101601f1916820190925261161b91810190611e06565b60015b611678573d80801561164c576040519150601f19603f3d011682016040523d82523d6000602084013e611651565b606091505b5080516116705760405162461bcd60e51b81526004016105399061206c565b805181602001fd5b6001600160e01b031916630a85bd0160e11b149050610ec8565b506001949350505050565b600081815260018301602052604081205480156117b05760006116c1600183612789565b85549091506000906116d590600190612789565b905060008660000182815481106116fc57634e487b7160e01b600052603260045260246000fd5b906000526020600020015490508087600001848154811061172d57634e487b7160e01b600052603260045260246000fd5b600091825260209091200155611744836001612771565b6000828152600189016020526040902055865487908061177457634e487b7160e01b600052603160045260246000fd5b600190038181906000526020600020016000905590558660010160008781526020019081526020016000206000905560019450505050506106df565b60009150506106df565b60009081526001919091016020526040902054151590565b6001600160e01b031981166301ffc9a760e01b14919050565b6117f6838383611821565b6117fe610826565b156105f15760405162461bcd60e51b815260040161053990611f59565b3b151590565b61182c8383836105f1565b6001600160a01b03831661184857611843816118aa565b61186b565b816001600160a01b0316836001600160a01b03161461186b5761186b83826118ee565b6001600160a01b038216611887576118828161198b565b6105f1565b826001600160a01b0316826001600160a01b0316146105f1576105f18282611a64565b600a80546000838152600b60205260408120829055600182018355919091527fc65a7bb8d6351c1cf70c95a316cc6a92839c986682d98bc35f958f4883f9d2a80155565b600060016118fb84610937565b6119059190612789565b600083815260096020526040902054909150808214611958576001600160a01b03841660009081526008602090815260408083208584528252808320548484528184208190558352600990915290208190555b5060009182526009602090815260408084208490556001600160a01b039094168352600881528383209183525290812055565b600a5460009061199d90600190612789565b6000838152600b6020526040812054600a80549394509092849081106119d357634e487b7160e01b600052603260045260246000fd5b9060005260206000200154905080600a8381548110611a0257634e487b7160e01b600052603260045260246000fd5b6000918252602080832090910192909255828152600b9091526040808220849055858252812055600a805480611a4857634e487b7160e01b600052603160045260246000fd5b6001900381819060005260206000200160009055905550505050565b6000611a6f83610937565b6001600160a01b039093166000908152600860209081526040808320868452825280832085905593825260099052919091209190915550565b828054611ab4906127cc565b90600052602060002090601f016020900481019282611ad65760008555611b1c565b82601f10611aef57805160ff1916838001178555611b1c565b82800160010185558215611b1c579182015b82811115611b1c578251825591602001919060010190611b01565b50611b28929150611b2c565b5090565b5b80821115611b285760008155600101611b2d565b600067ffffffffffffffff80841115611b5c57611b5c61281d565b604051601f8501601f19908116603f01168101908282118183101715611b8457611b8461281d565b81604052809350858152868686011115611b9d57600080fd5b858560208301376000602087830101525050509392505050565b80356001600160a01b038116811461047b57600080fd5b8035801515811461047b57600080fd5b600060208284031215611bef578081fd5b610a2082611bb7565b60008060408385031215611c0a578081fd5b611c1383611bb7565b9150611c2160208401611bb7565b90509250929050565b600080600060608486031215611c3e578081fd5b611c4784611bb7565b9250611c5560208501611bb7565b9150604084013590509250925092565b60008060008060808587031215611c7a578081fd5b611c8385611bb7565b9350611c9160208601611bb7565b925060408501359150606085013567ffffffffffffffff811115611cb3578182fd5b8501601f81018713611cc3578182fd5b611cd287823560208401611b41565b91505092959194509250565b60008060408385031215611cf0578182fd5b611cf983611bb7565b9150611c2160208401611bce565b60008060408385031215611d19578182fd5b611d2283611bb7565b9150602083013567ffffffffffffffff811115611d3d578182fd5b8301601f81018513611d4d578182fd5b611d5c85823560208401611b41565b9150509250929050565b60008060408385031215611d78578182fd5b611d8183611bb7565b946020939093013593505050565b600060208284031215611da0578081fd5b5035919050565b60008060408385031215611db9578182fd5b82359150611c2160208401611bb7565b60008060408385031215611ddb578182fd5b50508035926020909101359150565b600060208284031215611dfb578081fd5b8135610a2081612833565b600060208284031215611e17578081fd5b8151610a2081612833565b60008060408385031215611e34578182fd5b82359150611c2160208401611bce565b60008151808452611e5c8160208601602086016127a0565b601f01601f19169290920160200192915050565b60008351611e828184602088016127a0565b835190830190611e968183602088016127a0565b01949350505050565b6001600160a01b0391909116815260200190565b6001600160a01b0385811682528416602082015260408101839052608060608201819052600090611ee690830184611e44565b9695505050505050565b901515815260200190565b90815260200190565b600060208252610a206020830184611e44565b60208082526022908201527f456e756d657261626c655365743a20696e646578206f7574206f6620626f756e604082015261647360f01b606082015260800190565b6020808252602b908201527f4552433732315061757361626c653a20746f6b656e207472616e73666572207760408201526a1a1a5b19481c185d5cd95960aa1b606082015260800190565b6020808252602f908201527f416363657373436f6e74726f6c3a2073656e646572206d75737420626520616e60408201526e0818591b5a5b881d1bc819dc985b9d608a1b606082015260800190565b60208082526014908201527314185d5cd8589b194e881b9bdd081c185d5cd95960621b604082015260600190565b6020808252602b908201527f455243373231456e756d657261626c653a206f776e657220696e646578206f7560408201526a74206f6620626f756e647360a81b606082015260800190565b60208082526032908201527f4552433732313a207472616e7366657220746f206e6f6e20455243373231526560408201527131b2b4bb32b91034b6b83632b6b2b73a32b960711b606082015260800190565b6020808252601c908201527f4552433732313a20746f6b656e20616c7265616479206d696e74656400000000604082015260600190565b6020808252603e908201527f4552433732315072657365744d696e7465725061757365724175746f49643a2060408201527f6d75737420686176652070617573657220726f6c6520746f2070617573650000606082015260800190565b60208082526024908201527f4552433732313a207472616e7366657220746f20746865207a65726f206164646040820152637265737360e01b606082015260800190565b60208082526019908201527f4552433732313a20617070726f766520746f2063616c6c657200000000000000604082015260600190565b60208082526031908201527f5468697320746f6b656e20746f6b656e206973206e6f74207472616e7366657260408201527061626c6520617420746869732074696d6560781b606082015260800190565b6020808252602c908201527f4552433732313a206f70657261746f7220717565727920666f72206e6f6e657860408201526b34b9ba32b73a103a37b5b2b760a11b606082015260800190565b60208082526030908201527f416363657373436f6e74726f6c3a2073656e646572206d75737420626520616e60408201526f2061646d696e20746f207265766f6b6560801b606082015260800190565b60208082526010908201526f14185d5cd8589b194e881c185d5cd95960821b604082015260600190565b60208082526038908201527f4552433732313a20617070726f76652063616c6c6572206973206e6f74206f7760408201527f6e6572206e6f7220617070726f76656420666f7220616c6c0000000000000000606082015260800190565b6020808252602a908201527f4552433732313a2062616c616e636520717565727920666f7220746865207a65604082015269726f206164647265737360b01b606082015260800190565b60208082526029908201527f4552433732313a206f776e657220717565727920666f72206e6f6e657869737460408201526832b73a103a37b5b2b760b91b606082015260800190565b6020808252818101527f4552433732313a206d696e7420746f20746865207a65726f2061646472657373604082015260600190565b6020808252602c908201527f4552433732313a20617070726f76656420717565727920666f72206e6f6e657860408201526b34b9ba32b73a103a37b5b2b760a11b606082015260800190565b6020808252602c908201527f4552433732314d657461646174613a2055524920736574206f66206e6f6e657860408201526b34b9ba32b73a103a37b5b2b760a11b606082015260800190565b60208082526029908201527f4552433732313a207472616e73666572206f6620746f6b656e2074686174206960408201526839903737ba1037bbb760b91b606082015260800190565b6020808252602f908201527f4552433732314d657461646174613a2055524920717565727920666f72206e6f60408201526e3732bc34b9ba32b73a103a37b5b2b760891b606082015260800190565b60208082526021908201527f4552433732313a20617070726f76616c20746f2063757272656e74206f776e656040820152603960f91b606082015260800190565b60208082526031908201527f4552433732313a207472616e736665722063616c6c6572206973206e6f74206f6040820152701ddb995c881b9bdc88185c1c1c9bdd9959607a1b606082015260800190565b6020808252602c908201527f455243373231456e756d657261626c653a20676c6f62616c20696e646578206f60408201526b7574206f6620626f756e647360a01b606082015260800190565b6020808252603d908201527f4552433732315072657365744d696e7465725061757365724175746f49643a2060408201527f6d7573742068617665206d696e74657220726f6c6520746f206d696e74000000606082015260800190565b60208082526030908201527f4552433732314275726e61626c653a2063616c6c6572206973206e6f74206f7760408201526f1b995c881b9bdc88185c1c1c9bdd995960821b606082015260800190565b602080825260409082018190527f4552433732315072657365744d696e7465725061757365724175746f49643a20908201527f6d75737420686176652070617573657220726f6c6520746f20756e7061757365606082015260800190565b6020808252602f908201527f416363657373436f6e74726f6c3a2063616e206f6e6c792072656e6f756e636560408201526e103937b632b9903337b91039b2b63360891b606082015260800190565b6000821982111561278457612784612807565b500190565b60008282101561279b5761279b612807565b500390565b60005b838110156127bb5781810151838201526020016127a3565b83811115610b6b5750506000910152565b6002810460018216806127e057607f821691505b6020821081141561280157634e487b7160e01b600052602260045260246000fd5b50919050565b634e487b7160e01b600052601160045260246000fd5b634e487b7160e01b600052604160045260246000fd5b6001600160e01b0319811681146107c857600080fdfea2646970667358221220bfb5f5c338a6b17b3f3c2c7b00b9cfa86d9133ec00f9516e2792fcfb292e6b0664736f6c63430008010033",
    "sourcePath": "c:/GitHub/openzeppelin/ERC721_full.sol",
    "compiler": {
        "name": "solc",
        "version": "0.8.1+commit.df193b15"
    },
    "functionHashes": {
        "DEFAULT_ADMIN_ROLE()": "a217fddf",
        "MINTER_ROLE()": "d5391393",
        "PAUSER_ROLE()": "e63ab1e9",
        "_setTokenIsTransferable(uint256,bool)": "67a31856",
        "approve(address,uint256)": "095ea7b3",
        "awardItem(address,string)": "cf378343",
        "balanceOf(address)": "70a08231",
        "burn(uint256)": "42966c68",
        "getApproved(uint256)": "081812fc",
        "getRoleAdmin(bytes32)": "248a9ca3",
        "getRoleMember(bytes32,uint256)": "9010d07c",
        "getRoleMemberCount(bytes32)": "ca15c873",
        "grantRole(bytes32,address)": "2f2ff15d",
        "hasRole(bytes32,address)": "91d14854",
        "isApprovedForAll(address,address)": "e985e9c5",
        "mint(address)": "6a627842",
        "name()": "06fdde03",
        "ownerOf(uint256)": "6352211e",
        "pause()": "8456cb59",
        "paused()": "5c975abb",
        "renounceRole(bytes32,address)": "36568abe",
        "revokeRole(bytes32,address)": "d547741f",
        "safeTransferFrom(address,address,uint256)": "42842e0e",
        "safeTransferFrom(address,address,uint256,bytes)": "b88d4fde",
        "setApprovalForAll(address,bool)": "a22cb465",
        "supportsInterface(bytes4)": "01ffc9a7",
        "symbol()": "95d89b41",
        "tokenByIndex(uint256)": "4f6ccce7",
        "tokenIsTransferable(uint256)": "8ceb871c",
        "tokenOfOwnerByIndex(address,uint256)": "2f745c59",
        "tokenURI(uint256)": "c87b56dd",
        "totalSupply()": "18160ddd",
        "transferFrom(address,address,uint256)": "23b872dd",
        "unpause()": "3f4ba83a"
    },
    "gasEstimates": {
        "creation": {
            "codeDepositCost": "2073400",
            "executionCost": "infinite",
            "totalCost": "infinite"
        },
        "external": {
            "DEFAULT_ADMIN_ROLE()": "339",
            "MINTER_ROLE()": "294",
            "PAUSER_ROLE()": "338",
            "_setTokenIsTransferable(uint256,bool)": "23335",
            "approve(address,uint256)": "infinite",
            "awardItem(address,string)": "infinite",
            "balanceOf(address)": "1378",
            "burn(uint256)": "infinite",
            "getApproved(uint256)": "2246",
            "getRoleAdmin(bytes32)": "1270",
            "getRoleMember(bytes32,uint256)": "infinite",
            "getRoleMemberCount(bytes32)": "infinite",
            "grantRole(bytes32,address)": "infinite",
            "hasRole(bytes32,address)": "1450",
            "isApprovedForAll(address,address)": "infinite",
            "mint(address)": "infinite",
            "name()": "infinite",
            "ownerOf(uint256)": "1388",
            "pause()": "infinite",
            "paused()": "1129",
            "renounceRole(bytes32,address)": "infinite",
            "revokeRole(bytes32,address)": "infinite",
            "safeTransferFrom(address,address,uint256)": "infinite",
            "safeTransferFrom(address,address,uint256,bytes)": "infinite",
            "setApprovalForAll(address,bool)": "infinite",
            "supportsInterface(bytes4)": "infinite",
            "symbol()": "infinite",
            "tokenByIndex(uint256)": "2915",
            "tokenIsTransferable(uint256)": "2237",
            "tokenOfOwnerByIndex(address,uint256)": "2402",
            "tokenURI(uint256)": "infinite",
            "totalSupply()": "1074",
            "transferFrom(address,address,uint256)": "infinite",
            "unpause()": "infinite"
        },
        "internal": {
            "_setTokenURI(uint256,string memory)": "infinite"
        }
    }
}